0000COST OF SALES SOLD      00000000000000000000000000000000
0000                        00000000000000000000000000000000
0200ABBOTT ASSOCIATES, INC. 00000000000000000000000000000000
0300M N AITKIN              00000000000000000000000000000000
0500AMERICAN FLUID SYSTEMS  00000000000000000000000000000000
1500WARREN BARR             00000000000000000000000000000000
2100BRADLEY SUPPLY CO.      00000000000000000000000000000000
3000DEVICE ENGINEERING      00000000000000000000000000000000
3300ELECTRO-HYDRA CO.       00000000000000000000000000000000
3505ESCO CORP.              00000000000000000000000000000000
3775FLO TEK INC.            00000000000000000000000000000000
3800FLOW PRODUCTS           00000000000000000000000000000000
3900FLUID POWER             00000000000000000000000000000000
3901DRESSER INDUSTRIAL      00000000000000000000000000000000
4151GE GAS TURBINE          00000000000000000000000000000000
4152GE NUCLEAR              00000000000000000000000000000000
4200GREER HYDRAULICS        00000000000000000000000000000000
4700HASKEL ENGINEERING      00000000000000000000000000000000
5000HOWARD SUPPLY CO.       00000000000000000000000000000000
5150HUGHES INDUSTRIAL CO.   00000000000000000000000000000000
5500JAY INSTRUMENT & SPEC.  00000000000000000000000000000000
5600KENETT CO.              00000000000000000000000000000000
5700KEY PIPE & SUPPLY       00000000000000000000000000000000
5950LANIER ENGINEERING      00000000000000000000000000000000
6110LADISH COMP.            00000000000000000000000000000000
6150MC ARDLE-DESCO          00000000000000000000000000000000
6200MC JUNKIN CORP.         00000000000000000000000000000000
6300BEN MC KALIP CO.        00000000000000000000000000000000
6350METROPOLITAN SUPPLY     00000000000000000000000000000000
6401MID-STATES SUPPLY       00000000000000000000000000000000
6505J. D. MOTT              00000000000000000000000000000000
6600MUELLER SALES           00000000000000000000000000000000
6650J E MYLES INC.          00000000000000000000000000000000
6800NEAL SUPPLY             00000000000000000000000000000000
7500PILGRIM INSTRUMENTS     00000000000000000000000000000000
7600REACTOR CONTROLS        00000000000000000000000000000000
7900ROESCH & CROSBY INC.    00000000000000000000000000000000
8000SCHNITZER ALLOY         00000000000000000000000000000000
8200E W SMITH               00000000000000000000000000000000
8450STANDARD SUPPLY & HDW.  00000000000000000000000000000000
8490SYSTEMS COMP. CORP.     00000000000000000000000000000000
8750TRUESDELL CO.           00000000000000000000000000000000
8900WARREN & BAILEY         00000000000000000000000000000000
9501US NAVY                 00000000000000000000000000000000
9502US GOVT. & OTHER        00000000000000000000000000000000
999903/06/71                99999999999999999999999999999999
 
