0000000000000000000000000000002A0050B0100C0180D0208E0314302682023510189F0263G0231H0138J0180M0075N0180P0140S0140T0250X0047Y0231Z0050                                                                           NASNI SAN DIEGO CA 92135   52420189019039000021051084595-1652894              0                    000072121242483NAVY
00000000000000000000000000000010NARF NORTH ISLAND   1NARF NORTH ISLAND   8NARF NORTH ISLAND   9NARF NORTH ISLAND   ANAS NORTH ISLAND    BEPDOPAC             ENAVAIRSYSCOMREPAC   FFACSFAC             GCOMNAVAIRPAC        HPAMIPAC             JCOMFAIR SAN DIEGO   LCOMFAIR MIRAMAR     M0NAF EL CENTRO       000NNUWPNTRACENPAC      RNAS IMPERIAL BEACH  TFASOTRAGR UPAC      UOPTEVFORPAC         WFLEWEAFAC           ZNAS MIRAMAR         DDPSCPAC             YNPROLANT
0G10000000MR NONAME            12000   G10110    IM 100-20-3000                                                                            0593200     000000000000      M       093072093072000000000000093098                                                                   1   00000W000003 0000000000000000000000000000000                                      000               0000000000000000000000000000000000000000000000000000000000000000000000000000000000000000000000000000000000000000000000000000000000000000000000000000000000000000 0000000000000000000000
0G10032884GW PORTER           A12000   G11105    FS 508-10-7625                                                                            1508500     0000000012471     M       100819092645000000000000052848  3533 ARMSTRONG ST             SAN DIEGO           CA        921111   00000W007251E04950550000000101              07270379                              000               000030070700000034297013388811453706226030490442804675007504000000316360222250090000000000000045000024300000048996&00000006597505559350000000000000000000048996& 000000000000000000000000000000000000000000000000000000000000000
0G10034383MH GARRISON          12000   G11101    FM 444-14-1175                                                                            1330900            072372    LM  1    061224081345            090248                                                                   1   00000WB06401 04400000A00390202              14780948                              000               0000697754000000718900246044173682314861946008807000000131250000000000002000602100000000000000819000000000001027040000000000000102704000000000000000000001027040 000000000000006250000000000000000000000000000000000000002170000
0G10040438CG SAMARRON          10000   G11204    FM 451-24-1852                                                                            1745300            112871    LM  1    071622062251            062251                                                                   1   01000W 08391 05500000A00460201              06000379                              000               0000831169000000984120331153249593127730778611523000001575000000000000003558000000000000000000945000000000001406000000000000000140600000000000000000000001406000 000000000000075000000000000000000000000000000000000000003558000
0G10041382E  SAWAYA           A12000   G10410    FM 381-09-6386                                                                            0850600            031366    1F  1    032013082542            050568  5366 CHOLLAS PARKWAY          SAN DIEGO           CA        921051   00000W 04091 03030000000000621              06050379                              000               0000374294000000296530149951088029073580475403939000000121940000000000000964500000000000000000000000000000000423680000000101432052511200000000000000000000423680 000000000000009380000000000000000000000000000000000000000000000
0G10043121LM PARKER            10000   G10608    FS 573-42-4932                                                                            1005700            041871    1F  1    091410091450            091450                                                                   1   01000W 04841 03580000000000201              06000379                              000               0000577276000000567650196307136076127730778607490000000000000000000000002066000000000000000000000000000000000811040000000000000081104000000000000000000000811040 000000000000000000000000000000000000000000000000000000002066000
0G10047520FE NORTON            10000   G11209    FS 092-03-2984                                                                            2009800            090670    1M  1    093013090644            092655                                                                   1   01000W 09661 06330000A00700201              06000379                              000               0001001952000001133300394353365545127730778613265000000078750000000000008964000000000000000001450000000000001618880000000000000161888000000000000000000001618880 000000000000003750000000000000000000000000000000000000008964000
0G10048309MV WHEELER           11300   G10510    FS 573-42-2040                                                                            0951500            041871    QF  1    080207052956            052956                                                                   1   01000W 04571 03300000000000201              06000379                              000               0000547914000000536100181154126613127730778606930000000000000000000000001808000000000000000000000000000000000765920000000000000076592000000000000000000000765920 000000000000000000000000000000000000000000000000000000001808000
0G10049314BI CARLSON           13000   G10408    FS 469-30-4752                                                                            0807000            051671    1F  1    09292811657            11657                                                                   1   01000W 03881 03030000A00100101              07270379                              000               0000464620000000455210157475104057152401678606335000000000000000000000001239200000000000000000207500000000000650240000000000000065024000000000000000000000650240 000000000000000000000000000000000000000000000000000000001220000
0G10049808MJ LUCERO            11200   G10609    FM 519-24-4105                                                                            1032900            031972    1F  1    032628010747            062757                                                                   1   00030WB04971 03580000A00310201              06000379                              000               0000523007000000578600197268196173127730778607490000000393750000000000001417602100000000000000651000000000000826640032824000000085946400000000000000000000826640 000000000000018750000000000000000000000000000000000000001310000
0G10049929DT DOUGLASS          11000   G10909    FM 141-14-9541                                                                            1399000            092070    1F  1    042221100144            090557                                                                   1   00085WB06731 04400000A00500201              06000379                              000               00005033990000006724202676713603211277316786092130000010500000000000000022892021000000000000010500000000000010344000000000000011034400000000000000000000103440 000000000000050000000000000000000000000000000000000000002382000
0G10050062JE GILBERT           11100   G10609    FM 471-12-9621                                                                            1032900            092070    1F  1    020819053043            120357                                                                   1   01000WB04971 03580000A00125102              17500948                              000               0000590484000000573490197848114610367111946007490000000000000000000000001089502100000000000000262500000000000819360002904000000082226400000000000000000000819360 000000000000000000000000000000000000000000000000000000001118000
0G10052998AD FEARN             13000   G11105    FM 550-38-6835                                                                            1508500            043072    LM  1    061630082251            050568                                                                   1   05000WB07251 04950000000000205              06400640                              000               0000929096000000839910289407143297134401344010124000000000000000000000001787202100000000000000000000000000001199920000000000000119992000000000000000000001199920 000000000000000000000000000000000000000000000000000000001844000
0G10045283AH WATTERS           12000   G10310    FS 551-28-9014                                                                            0757400            112970    1F  1    030323053158            080463                                                                   1   01000W 03641 02750000000000101              07270379                              000               0000442393000000426920148420093912149480770805775000000000000000000000001028000000000000000000000000000000000610000000000000000061000000000000000000000000610000 000000000000000000000000000000000000000000000000000000001028000
0G10056121SE SUTTON JR         11300   G10210    FM 234-30-1253                                                                            0671400     0000000102068    LM       112324120962000000000000120764                                                                   1   04000W 03231D02750360A00050205              06400640                              000               0000443465000000377170146688041117134401344005775075600078750000000000000016500000000000000000105000000000000538764019400000000055816400000000000000000000538764 000000000000003750000000000000000000000000000000000000000000000
0G10059273WG DAVIS             12000   G10706    FS 550-56-2243                                                                            1056300            020870    NM  1    011440012362            092966                                                                   1   00000W 05081 03580000A00100102              17500948                              000               0000702695000000593240210703214592367111946007434000000000000000000000004208600000000000000000215000000000000847520209440008032106499200000000000000000000847520 000000000000000000000000000000000000000000000000000000002432000
0G10070211HV ALLEN            A10000   G11104    FM 542-16-3069                                                                            1464100                      LM  1    031316102551            122166  6296 LAKE ATHABASKA PLACE     SAN DIEGO           CA        921191   03000W 07041 04680000A00460622              16120948PA00110231652  ANA 33202 4    090               0000255967000000273870231637077401101610624003248000000131250000000000001098700000000000000000322000630000000391280000000073216046449600000000000000000000391280 000000000000018750000000000000000000000000000000000000000000000
0G10070235LM KOZAK             10000   G10504    FM 027-38-8407                                                                            0805100            090372    1F  2    101248122866            122866                                                                   1   00000W 03871 03030000A00100202              14780948                              000               0000468885000000441950145199096013312711946005859000000000000000000000000819100000000000000000200000000000000631360025054000000065641400000000000000000000631360 000000000000000000000000000000000000000000000000000000000782000
0G10071499CE THORNTON         A12000   G10404    FM 563-70-3760                                                                            0719800            030572    1F  2    082848062667            062667  3696 MARLBOROUGH              SAN DIEGO           CA        921051   00000W 03463 00000000A00150204              02680268                              000               0000175273000000174240113613034855029480294800000000000022500000000000000252000000000000000000160000120000000248870000000000000024887000000000000000000000248870 000000000000000000000000000000000000000000000000000000000000000
0G10074125GE VALDEZ            11200   G10404    FS 549-74-3321                                                                            0719800            043072    1F  2    062149062768            121568                                                                   1   00000W 03461 02750000A00125205              06400640                              000               0000392962000000397270130657101689128001280005775000000196980000000000001154000000000000000000262500000000000567440016608002768058681600000000000000000000567440 000000000000009380000000000000000000000000000000000000001100000
0G10074730JO VANLUE            11300   G10303    FM 149-07-8851                                                                            0621600            010972    LF  2    010721031465            102968                                                                   1   00000W 02991 02750000000000621              06050379               ANA 49899 3    040               0000332101000000350140114975075377119130770805775000000000000000000000000557000000000000000000000000660000000500320031430000000053175000000000000000000000500320 000000000000000000000000000000000000000000000000000000000638000
0G10074759LM ANDREWS           11100   G10403    FS 570-84-3941                                                                            0698000            122671    1F  2    030950112568            111468                                                                   1   00000W 03361 02750000A00150101              07270379                              000               0000392777000000391170126811098846149200768005775000000078750000000000001086200000000000000000310000000000000558720014552000000057327200000000000000000000558720 000000000000003750000000000000000000000000000000000000001036000
0G10074824K  VALLARIO          11100   G10403    FS 553-76-3621                                                                            0698000            122671    1F  2    072950122468            121868                                                                   1   00000W 03361 02750000A00050105              05880588                              000               0000408299000000391170124430099587120001200005775000000000000000000000001102200000000000000000100000000000000558720018080000000057680000000000000000000000558720 000000000000000000000000000000000000000000000000000000001036000
0G10075233CA CANNON            12000   G10507    FM 158-14-7133                                                                            0878300            041871    1F  1    061124080458            041469                                                                   1   00000W 04221 03030000000000621              06050379               ANA 47326 0    050               0000422592000000492350170837104043116450744006363000000000000000000000000953800000000000000000005001050000000703402005064000000070846600000000000000000000703402 000000000000000000000000000000000000000000000000000000000950000
0G10076052CS HASSON            11200   G10404    FM 576-24-7838                                                                            0719800            090372    1F  2    100130081169            081169                                                                   1   00000W 03461 02750000A00125001              00000000                              000               0000443063000000395020127812083217000000000005775000000000000000000000000654600000000000000000262500000000000564240016488000000058072800000000000000000000564240 000000000000000000000000000000000000000000000000000000000836000
0G10076120GE WHEELER           13000   G10402    FS 547-84-3991                                                                            0676200     0000000111471     F       083051102969000000000000082269                                                                   1   00000W 03251 02750000A00050204              02680268                              000               0000372387000000362840076962088131056280562805775000000000000000000000000883700000000000000000105000039000000518400003592000000052199200000000000000000000518400 000000000000000000000000000000000000000000000000000000000966000
0G10076703RM ROWELL            13000   G10904    FM 411-42-6281                                                                            1215000            100172    LM  221  032430070763            082768                                                                   1   00000W 05841 04130000A00390001              00000000               ANA 42428 7    043               0000607245000000665930225931153726000000000008194000000000000000000000001708200000000000000000811000903000000951250000000000000095125000000000000000000000951250 000000000000000000000000000000000000000000000000000000001754000
0G10076888M  DELGADO           12000   G10401    FS 570-84-7445                                                                            0654400     0000000072372     F       041951060270000000000000060270                                                                   1   00000W 03151A02750130A00050001              00000000                              000               0000393840000000347540087772091892000000000005775027300000000000000000000964900000000000000000105000000000000496480040890002320053969000000000000000000000496480 000000000000000000000000000000000000000000000000000000000902000
0G10077621MA ROBLES            11100   G10401    FS 454-92-1974                                                                            0654400     0000000082072     F       101250012271000000000000012271                                                                   1   01000W003151 02750000A001501040000000000000002400240                              000               0000386335000000340820068756077170050400504005775000000000000000000000000715500000000000000000300000000000000486880031677000000051855700000000000000000000486880 000000000000000000000000000000000000000000000000000000001014000
0G10077681SD TINDERHOLT       A11200   G10301    FM 521-72-2923                                                                       0552400     000000000000      F       060150100270000000000000030171  1111 EIGHT ST                 CORONADO            CA       92118 1   00000W002661 02750000000000001000000000000000000                                  000               0000024844000000014900031835004191000000000000275000000000000000000000000000000000000000000000000000000000000021280000000009520003080000000000000000000000021280 000000000000000000000000000000000000000000000000000000000000000
0G10078312L  TURNBULL          10000   G10401    FS 549-78-7764                                                                            0654400     0000000062572     F       102449052071000000000000052071                                                                   1   00000W003153 000000000000000010000000000000000000000                              000               0000346294000000340650054726080800000000000000000000000178220000000000000765900000000000000000000000000000000486640000000000000048664000000000000000000000486640 000000000000009380000000000000000000000000000000000000000902000
0G10078880KA PAQUET            11300   G10202    FM 067-26-3688                                                                            0533800     0000000080672     M       040123061561000000000000072971                                                                   1   04000W002571 02750000A000500010000000000000000000000                              000               0000381931000000293460043411022204000000000005775000000000000000000000000000000000000000000000100000000000000419200021056000000044025600000000000000000000419200 000000000000000000000000000000000000000000000000000000000000000
0G10079330CM SCHROEPPEL        11100   G10201    FS 557-88-0208                                                                            0516600     0000000011072     F       011453011072000000000000011072                                                                   1   00000W002481 027500000000000010000000000000000000000                              000               0000303256094130152790015279063984000000000003300000000000000000000000000548600000000000000000000000000000000392832007886000000040071800000018099000000000218240 000000000000000000000000000000000000000000000000000000000534000
0G10079486CA DENTON           A11100   G10301    FS 556-88-6763                                                                            0582800     000000000000      F       052952050172000000000000050172  4641 MT ABERNATHY AVE         SAN DIEGO           CA        921171   00000W002801A02750130000000001000000000000000000                                  000               0000021171000000019990001999004225000000000000550002600000000000000000000035500000000000000000000000000000000028560000000000000002856000000000000000000000028560 000000000000000000000000000000000000000000000000000000000000000
0G10080355BT GOGUE             11100   G10401    FM 586-03-1432                                                                            0654400     000000000000      F       030147012872000000000000070572                                                                   1   04000W003151 027500000000006220000000000000016120948                              000               0000145748000000128770012877014766080600474002200000000000000000000000000030900000000000000000000000000000000183960000000000000018396000000000000000000000183960 000000000000000000000000000000000000000000000000000000000000000
0G10080556BJ BROUDE            11100   G10201    FS 346-26-1646                                                                            0516600     000000000000      F       042735071772000000000000071772                                                                   1   05000W002483 000000000000000010000000000000000000000                              000               0000118696000000090280009028003285000000000000550000000000000000000000000037700000000000000000000000000000000128960002976000000013193600000000000000000000128960 000000000000000000000000000000000000000000000000000000000185000
0G10080589JC LAKE             A11300   G10201    FM 547-60-8002                                                                            0516600     000000000000      M       020744061568000000000000071972  4810 ORCHARD AVE              SAN DIEGO           CA        921072   00000W002482 000000000000000030000000000000000000000                              000               0000049763031990000000000000008071000000000000000000000000000000000000000047100000000000000000000000000000000061504000000000000006150400000006150400000000000000 000000000000000000000000000000000000000000000000000000000000000
0G10080893JL CHAFE             11100   G10201    FM 564-56-6894                                                                            0516600     000000000000      F       103042082272000000000000082272                                                                   1   00000W002481A027501300000000000000000000000000000000                              000               0000059131000000054170005417010571000000000001100005200000000000000000000063700000000000000000000000000000000077376000000000000007737600000000000000000000077376 0000000000000000000000                              00000332
0G10081030PP MATANANE          11300   G10201    FM 586-03-6892                                                                            0516600     000000000000      M       082148021369000000000000082972                                                                   1   02000W002481 027500000000002050000000000000006400640                              000               0000052278011870026040002604005685006400064000550000000000000000000000000004800000000000000000000000000000000060016002976000000006299200000002281600000000037200 0000000000000000000000                              00000000
0G10081184DD STOUGH            11300   G10201    FS 564-80-9509                                                                            0516600     000000000000      M       072147122270000000000000092772                                                                   1   01000W002481 027500000000001040000000000000002400240                              000               0000019652000000017360001736002481002400024000550000000000000000000000000014100000000000000000000000000000000024800000000000000002480000000000000000000000024800 0000000000000000000000                              00111251
0G10081210CL PAGE              11300   G10201    FS 411-82-0740                                                                            0516600     000000000000      M       120948022469000000000000100472                                                                   1   01000W002481 027500000000000000000000000000000000000                              000               0000012649000000011110001111001769000000000000275000000000000000000000000006800000000000000000000000000000000015872000000000000001587200000000000000000000015872 0000000000000000000000                              00111178
0G20013898LC ALEXANDER         22100   G11107    FM 522-26-2136                                                                            1597300            112970    1F  1    071014091144            091144                                                                   1   02000W 07681 04950000A00150202              14780948                              000               0000892973000000900970310270210640314861946010395000000393750000000000002453200000000000000000331000000000001287040015768000000130280800000000000000000001287040 000000000000018750000000000000000000000000000000000000002528000
0G20023716JC ROUSH             23200   G11109    FM 717-14-4606                                                                            1686100            110170    LM  1    112424010542            010542                                                                   1   04000W 08111 05230000A00200205              06400640               ANA 08716 6    035               0000872688000000951410330465197054134401344010955000000787500000000000002632000000000000000000420000675000001359040007008000000136604800000000000000000001359040 000000000000037500000000000000000000000000000000000000002594000
0G20024162PB SCHNEIDER         22000   G11206    FS 564-03-4358                                                                            1851100            062771    LM  1    092016050643            012946                                                                   1   00030W 08901 05780000A00250201              06000379                              000               0000846529000001025860350997396483127730778611774000000131250000000000007700000000000000000000525000000000001465520000000000000146552000000000000000000001465520 000000000000006250000000000000000000000000000000000000007940000
0G20026807LR SWENSON          A23300   G11207    FM 551-16-8837                                                                            1904000            071270    LM  1    071821071743            072246  1525 LIETA STREET             SAN DIEGO           CA        921101   01000WB09153 00000000000000202              14780948                              000               0000810818000000683990335083257877204011235000000000000262500000000000004523501400000000000000000000000000000977120000000253260123038000000000000000000000977120 000000000000018750000000000000000000000000000000000000000000000
0G20027667CJ COLLINS           21230   G11107    FM 161-16-7029                                                                            1597300            032171    LM  1    102122021043            092546                                                                   1   01000W 07681 04950000A00150205              06400640               ANA 19078 1    095ANA 02367 5    0210676273000000900970311871226575205921545610395000000393750000000000003070700000000000000000315001668004411287040021024000000130806400000000000000000001287040 000000000000018750000000000000000000000000000000000000002952000
0G20028322HI LA MUNYON        A21100   G10904    FM 462-22-2458                                                                            1215000     0000000041171     F       051622092142000000000000111446  4910 SPARKS AVENUE            SAN DIEGO           CA        921101   00000W 05841 04130000A00100002              00000000PA00150230551  ANA 09095 7    035               0000440326000000428550199374124504000000000005558000000262500000000000001575500000000000000000140000490000000612208000000093440070564800000000000000000000612208 000000000000018750000000000000000000000000000000000000000000000
0G20031121GR WILKINSON         21210   G11204    FS 559-30-1272                                                                            1745300            020771    1F  1    072126041447            072147                                                                   1   00000W 08391D05500360A00200001              00000000                              000               0000860948000000984120338793312862000000000011523074400393750000000000007124000000000000000000420000000000001406000000000000000140600000000000000000000001406000 000000000000018750000000000000000000000000000000000000007124000
0G20032317RI MC CAULEY         21200   G11301    FM 551-40-2512                                                                            1873700            030771    LM  1    101526012745            031948                                                                   1   04000W 09011 05780000A00150622              16120948               ANA 08521 1    046               0000961345000001017180340496217847325641946011775000000157500000000000003082100000000000000000310000782000001453120000000000000145312000000000000000000001453120 000000000000007500000000000000000000000000000000000000003097000
0G20032593MA LYNN              22200   G11106    FM 395-22-5030                                                                            1552900            100172    1F  1    022526120646            042048                                                                   1   00000W 07471 04950000A00250201              06000379                              000               0000826786000000851700291100222422127730778610368000000393750000000000002885500000000000000000525000000000001216720014279000000123099900000000000000000001216720 000000000000018750000000000000000000000000000000000000002888000
0G20032641CS LEMLEY            22140   G10607    FM 467-12-0205                                                                            0978500            080672    1F  1    092112031041            042648                                                                   1   00000WB04701 03300000000000001              00000000                              000               0000621323000000539750187035140684000000000006930000000393750000000000001513302100000000000000000000000000000771120102629005771087952000000000000000000000771120 000000000000018750000000000000000000000000000000000000002042000
0G20032646VH STEPHENS          22200   G11102    FM 515-16-7120                                                                            1375300            041871    1F  1    020920081946            042748                                                                   1   00000W 06611 04400000A00200204              02680268                              000               0000724709000000766080249505192632086040860409213000000675000000000000002316800000000000000000415000000000001094320012264000000110658400000000000000000001094320 000000000000037500000000000000000000000000000000000000002646000
0G20035262JV MURPHY            23000   G11306    FS 558-28-3843                                                                            2186200            111471    LM  1    011523112344            011749                                                                   1   04000W 10511 06600000A00150202              14780948               ANA 49628 4    060               0000931112000001232980420374352401314861946013833000000787500000000000010140000000000000000000300001260000001761280000000000000176128000000000000000000001761280 000000000000037500000000000000000000000000000000000000010140000
0G20035678EL SACHS             21230   G10910    FM 121-09-7444                                                                            1435800     0000000011670    1M       081118020742000000000000051649                                                                   1   01000W 06901 04680000000000202              14780948                              000               0000781353000000809420282202190084314861946009800000000393750000000000002328000000000000000000000000000000001156320000000000000115632000000000000000000001156320 000000000000018750000000000000000000000000000000000000002328000
0G20035927DE BJARNSON         A23300   G11105    FM 567-07-7245                                                                            1508500            122671    LM  151  060421080344            111449  11800 ALTADENA RD             LAKESIDE            CA        920401   08000W 07251 04950000A00150205              06400640RA00436 003962                000               0000710114000000541910262362094505086400864006903000000052500000000000001538200000000000000000205000000000000774160000000122875089703500000000000000000000774160 000000000000003750000000000000000000000000000000000000000000000
0G20036569E  STOUT             21240   G11205    FM 513-05-0237                                                                            1798200            121271    1M  1    112517112644            073150                                                                   1   03000W 08651 05500000A00250202              14780948                              000               0000885535000001027610349013247140314861946011770000001575000000000000003351100000000000000000525000000000001468000002628004325147495300000000000000000001468000 000000000000075000000000000000000000000000000000000000003409000
0G20037901MA MC GLYNN          23100   G10708    FM 315-09-6722                                                                            1116700            080871    1F  1    112313070544            091450                                                                   1   01000W 05371 03850000A00100202              14780948                              000               0000584459000000629900211491133580314861946008058000000787500000000000001381100000000000000000210000000000000899920015314000000091523400000000000000000000899920 000000000000037500000000000000000000000000000000000000001320000
0G20041254HW FRAHMANN          23300   G11204    FM 399-12-8571                                                                            1745300            061172    LM  1    102527110646            101551                                                                   1   07000WB08391 05500000A00100205              06400640                              000               0000989698000000967380317010162665134401344011226000000787500000000000002536302100000000000000210000000000001382080000000000000138208000000000000000000001382080 000000000000037500000000000000000000000000000000000000002634000
0G20042313GR OWENS             23200   G11206    FS 223-34-4055                                                                            1851100            111570    LM  1    013025091942            040952                                                                   1   02000WB08901 05780000A00100201              06000379                              000               0000924715000001023060352817292523127730778611718000000393750000000000007406001800000000000000225000000000001461520000000000000146152000000000000000000001461520 000000000000018750000000000000000000000000000000000000007686000
0G20045361RN SHULTZ            21220   G11107    FM 217-24-3571                                                                            1597300            030572    LM  1    011329051850            010454                                                                   1   03000W 07681 04950000A00310622              16120948               ANA 16406 5    050               0000848897000000895130306175227715325641946010368000000787500000000000003037900000000000000000651001050000001278720135600015376142969600000000000000000001278720 000000000000037500000000000000000000000000000000000000002312000
0G20046209RH BIBO              21210   G11104    FM 560-32-5822                                                                            1464100            030771    LM  1    032431121450            122754                                                                   1   04000W 07041 04680000A00150102              17500948                              000               0000971742000000825750283320202053369261946009800000000000000000000000002506600000000000000000315000000000001179760141552010000133131200000000000000000001179760 000000000000000000000000000000000000000000000000000000002102000
0G20046848PI WEISER           A22140   G10409    FS 560-28-0795                                                                            0828800            080871    1F  1    081905063054            042955  3734-29TH STREET              SAN DIEGO           CA        921041   01000W 03981 03030000000000201              06000379                              000               0000283383000000217320136347077967061730361703002000000000000000000000001409300000000000000000000000000000000310432000000095918040635000000000000000000000310432 000000000000000000000000000000000000000000000000000000000000000
0G20047038DR BLANKENSHIP       21210   G10909    FS 573-42-2570                                                                            1399000     0000000041970    1M       012236061355000000000000061355                                                                   1   02000W 06731B04400170A00100105              05880588               ANA 6659 2     033               0000793282000000774440266217205325123481234809213035300000000000000000004579600000000000000000205000065000001106320038544010624115548800000000000000000001106320 000000000000000000000000000000000000000000000000000000006186000
0G20047948BB PEACHER          A23100   G10409    FM 456-18-0629                                                                            0828800            043072    QF  1    053114052052            022056  202 NIXON PLACE               CHULA VISTA         CA        920101   00000W 03981 03030000000000201              06000379                              000               0000354234000000292530143308085939082730494404214000000262500000000000001009300000000000000000005000000000000417856001746098704051830600000000000000000000417856 000000000000018750000000000000000000000000000000000000000000000
0G20048053YJ KIEFER            22110   G10904    FS 330-01-4738                                                                            1215000            010972    1F  1    020813040956            010569                                                                   1   01000W 05841 04130000000000201              06000379                              000               0000766717000000684070231542215093127730778608645000000157500000000000004546500000000000000000000000000000000977360155490000000113285000000000000000000000977360 000000000000007500000000000000000000000000000000000000006357000
0G20048169WJ RUTKOWSKI        A21210   G11106    FM 563-40-1144                                                                            1552900            012471    LM  1    060811102229            050456  494 FIRST AVENUE              CHULA VISTA         CA        920101   02000W 07471 04950000A00190001              00000000                              000               0000763626000000558340265903205249000000000006903000000052500000000000003263400000000000000000262000000000000797664083220191232107211600000000000000000000797664 000000000000003750000000000000000000000000000000000000000000000
0G20048687LR BECHT             20000   G11507    FM 290-10-7080                                                                            3070100            122770    MM  1    010111062247            072356                                                                   1   05000WB14761 09080000A01000202              14780948               ANA 11086 2    075               0001510942000001731540600639524307314861946019040000000000000000000000010474102100000000000002025001575000002473520000000070000254352000000000000000000002473520 000000000000000000000000000000000000000000000000000000010430000
0G20049383WN TROXEL            23100   G10409    FM 567-26-1815                                                                            0828800            012471    1F  1    101317013157            013157                                                                   1   00000W 03981 03030000A00100205              06400640               ANA 53919 7    020               0000227133000000466970162096099742134331314606335000002362500000000000000875200000000000000000210000420000000667040015402000000068244200000000000000000000667040 000000000000112500000000000000000000000000000000000000000836000
0G20049814MF LINN              21100   G10907    FM 448-18-3781                                                                            1325400            110170    1F  1    082215010244            062657                                                                   1   00015W 06371 04400000A00190101              07270379                              000               0000708443000000747220259040214759152400778609213000000196980000000000002152000000000000000000392500000000001067520000000000000106752000000000000000000001067520 000000000000009380000000000000000000000000000000000000002152000
0G20050334D  PRICE            A21240   G11103    FM 456-48-4351                                                                            1419700                      LM  1    043037080154            070158  8281 CAFANZARA COURT          SAN DIEGO           CA        921191   03000W 06831 04680000A00250205              06400640               ANA 53690 3    070               0000355307000000278810215487102899051200512003604000000000000000000000001738900000000000000000200000480000000398280000000163920056220000000000000000000000398280 0000000000000000000000000000000000000000000000000000000000000000
0G20050601WE CURTIS            20000   G11106    FM 521-16-8405                                                                            1552900            032171    LM  1    031621100350            110458                                                                   1   00000W 07471 04950000A00050202              14780948               ANA 21912 9    056               0000713499000000865230287776233798314861946010368000000525000000000000003094400000000000000000105001176000001236080041688000000127776800000000000000000001236080 000000000000025000000000000000000000000000000000000000002976000
0G20050671JS PALMER            21240   G10903    FM 233-54-8350                                                                            1178200     0000000052872    NM       011534062953000000000000121558                                                                   1   03000W 05661 03850000A00050202              14780948               ANA 09177 5    043               0000595234000000637020216360114658314861946007788000000078750000000000000922700000000000000000105000903000000910000006792004528092132000000000000000000000910000 000000000000003750000000000000000000000000000000000000001407000
0G20051439IM GAGE              21210   G11105    FS 443-12-8557                                                                            1508500            043072    QF  1    012020062359            062359                                                                   1   00006W 07251 04950000A00100001              00000000                              000               0000821743000000839910289407279275000000000010124000000078750000000000005624600000000000000000210000000000001199920050448010986126135400000000000000000001199920 000000000000003750000000000000000000000000000000000000006527000
0G20051591LB COLEMAN           23300   G11108    FM 550-09-2778                                                                            1641700            020870    1M  1    052919112642            080359                                                                   1   02000W 07891 05230000000000205              06400640               ANA 49751 5    084               0000633409000000907990315680210476134401344010563000001575000000000000002453300000000000000000000001564000001297120000000000000129712000000000000000000001297120 000000000000075000000000000000000000000000000000000000002542000
0G20051781FW LAWRENCE          22140   G10409    FS 528-18-2873                                                                            0828800            080871    1F  1    011720052054            101359                                                                   1   00015W 03981E03030550000000201              06000379                              000               0000427259000000466970161312165031127730778606335115500000000000000000001884600000000000000000000000490000000667040067267003184073749100000000000000000000667040 000000000000000000000000000000000000000000000000000000002006000
0G20051927CA MANESE            21000   G10507    FM 575-24-4286                                                                            0878300            040471    1F  1    020929091559            030760                                                                   1   00010WB04221 03030000000000002              00000000               ANA 28579 8    040               0000460517000000488890164020139941000000000006363000000196980050000000001411501300000000000000000000750000000698400067423000000076582300000000000000000000698400 000000000000009380000000000000000000000000000000000000001950000
0G20051970ER GLANVILLE         21100   G11102    FS 548-26-9687                                                                            1375300            012372    LM  1    051321011146            040460                                                                   1   00020WB06611 04400000000000201              06000379                              000               0000697600000000773160255592262739127730778609213000000000000000000000004345901300000000000000000000000000001104400000000000000110440000000000000000000001104400 000000000000000000000000000000000000000000000000000000004360000
0G20052067ML BENSON            23300   G11104    FM 468-34-3087                                                                            1464100            062572    LM  1    113035061058            061060                                                                   1   04000W 07041 04680000A00310205              06400640                              000               0000863892000000794710261057144569134401344009464000000018760000000000001605800000000000000000651000000000001135280000000000000113528000000000000000000001135280 000000000000000000000000000000000000000000000000000000001764000
0G20052075WA KERN              23200   G11202    FM 177-18-7588                                                                            1639500            080871    LM  1    080224021445            061460                                                                   1   02000W 07881D05230360A00150102              17500948                              000               0000803340000000844620283946195746367111946010179075600787500000000000002132400000000000000000315000000000001206640027672006910124122200000000000000000001206640 000000000000037500000000000000000000000000000000000000002633000
0G20052107JF SMITH             21250   G11103    FM 547-54-3697                                                                            1419700            030572    1M  1    100942062460            062460                                                                   1   04000W 06831 04680000A00150622              16120948               ANA 60742 9    145               0000557960000000795190267125142396326471946009688000000000000000000000001602000000000000000000319002945000001135920000000000000113592000000000000000000001135920 000000000000000000000000000000000000000000000000000000001630000
0G20052111AP SZYMANSKI         23200   G11105    FM 571-54-6999                                                                            1508500            112871    1M  1    060240062760            062760                                                                   1   01000W 07251 04950000000000205              06400640               ANA 40622 1    095               0000668752000000830470280739200255134401344009908000000000000000000000002508600000000000000000000001995000001186480007008006500119998800000000000000000001186480 000000000000000000000000000000000000000000000000000000002608000
0G20052175JR VAN DER ZIEL      23200   G11104    FM 386-36-0364                                                                            1464100            071171    NM  1    081639082556            072860                                                                   1   02000W 07041 04680000000000205              06400640                              000               0000870663000000825750278884187129143621366409800000000196980000000000001994700000000000000000020000000000001179760014016010598120437400000000000000000001179760 000000000000009380000000000000000000000000000000000000002226000
0G20052448WJ SHUGART          A21200   G11304    FS 520-18-0142                                                                            2061200            080871    MM  1    052023053146            102860  3565 1ST AVE. APT Z           SAN DIEGO           CA        921031   00000W 09911D06330360A00200102              17500948                              000               0001011892000001073780383921453273340861803812632070200000000000000000011129600000000000000000400000450000001533872000000252705178657700000000000000000001533872 000000000000000000000000000000000000000000000000000000025292000
0G20052478GM COX JR            23200   G11102    FS 559-48-4627                                                                            1375300            062572    NM  1    111335101656            110860                                                                   1   00000W 06611 04400000000000204              02680268MA00021 810122                000               0000746403000000760180253806219409059930570609213000000000000000000000004254000000000000000000000000000000001085920013656000000109957600000000000000000001085920 000000000000000000000000000000000000000000000000000000004360000
0G20052507NM HETRICK          A22120   G10705    FM 556-26-0436                                                                            1026100                      LF  1    062221082551            112560                                                                   1   01000W 04931 03580000000000002              00000000                              000               0000172095000000144930157177036312000000000002120000000225000000000000000338900000000000000000000000000000000207032000000043877025090900000000000000000000207032 000000000000037500000000000000000000000000000000000000000000000
0G20052852JN CURIEL            21240   G10907    FM 450-56-0781                                                                            1325400            040471    NM  1    081536062956            060964                                                                   1   06000W 06371B04400170A00100205              06400640               ANA 31127 2    041               0000697766000000747220258573114159134401344009213035300590730000000000001395300000000000000000210001197000001067520035040005096110765600000000000000000001067520 000000000000028130000000000000000000000000000000000000002114000
0G20052919CH FLANDERS          22101   G10507    FS 173-14-7098                                                                            0878300            090670    MF  1    070310021044            051561                                                                   1   00000W 04221 03030000A00150621              06050379MA00021 808050                000               0000603954000000495000170557163034121980778606363000000000000000000000002739900000000000000000315000000000000707200155022003376086559800000000000000000000707200 000000000000000000000000000000000000000000000000000000003020000
0G20053079TJ PALKO             21230   G11108    FM 312-16-0663                                                                            1641700            100470    MM  1    010123102541            073161                                                                   1   04000W 07891D05230360A00100001              00000000               ANA 43203 6    250               0000534766000000907990313875179196000000000010563043200393750000000000002377700000000000000000210004350000001297120022776000000131989600000000000000000001297120 000000000000018750000000000000000000000000000000000000002418000
0G20053236FC MELSON            21250   G11204    FM 452-54-7899                                                                            1745300            020672    NM  1    011439090357            090161                                                                   1   04000W 08391 05500000A00343202              14780948               ANA 31880 0    092               0000787913000000979980323990205217314861946011469000000393750000000000002798000000000000000000724201914000001400080000000000000140008000000000000000000001400080 000000000000018750000000000000000000000000000000000000002818000
0G20054101KW GROEGER           21000   G11206    FM 533-26-2577                                                                            1851100            022072    LM  1    050830112857            112761                                                                   1   06000W 08901C05780240000000102              17500948                              000               0001387721000001014540346955320185367111946011635050400000000000000000006331600000000000000000000000000000001449360455742020960192606200000000000000000001449360 000000000000000000000000000000000000000000000000000000008536000
0G20054260KB DAVIS             23300   G11105    FM 517-12-3195                                                                            1508500            080672    LM  1    020416012353            122861                                                                   1   02000W 07251 04950000A00500102              17500948MA00021 820667 ANA 19612 7    055               0000739698000000831650284753186730367111946009935000000000000000000000001993700000000000000001050001155000001188160014016000000120217600000000000000000001188160 000000000000000000000000000000000000000000000000000000002030000
0G20054338CJ TRANTER           21000   G11405    FS 531-28-0230                                                                            2488800            111471    LM  1    061319102739            012262                                                                   1   00090W 11971 07430000A00500001              00000000PA00080242581                 000               0000963826000001387660462060687881000000000015548000000393750000000000012642400000000000000001050000000000001982320000000000000198232000000000000000000001982320 000000000000018750000000000000000000000000000000000000012852000
0G20054426RE FEILER            21000   G11204    FM 297-24-2674                                                                            1745300            080672    LM  1    080932112853            030962                                                                   1   02000W 08391 05500000A00200102              17500948                              000               0000972602000000961780326470245185367111946011118000000000000000000000003104600000000000000000420000320001601374080060960010000144504000000000000000000001374080 000000000000000000000000000000000000000000000000000000002942000
0G20055185LM BELL              22102   G10705    FM 548-40-7333                                                                            1026100            061371    1F  1    100730110451            062863                                                                   1   00000W 04933 00000000A00050205              06400640               ANA 54259 8    030               0000645789000000578410192676157193134401344000000000000078750000000000001783200000000000000000105000525000000826240127280000000095352000000000000000000000826240 000000000000003750000000000000000000000000000000000000002176000
0G20055294TL DICKINSON         23300   G11101    FM 569-64-4311                                                                            1330900     0000000100470    1M       120144090463000000000000090463                                                                   1   01000W 06401A04400130000000102              17500948                              000               0000733743000000707000240036163872367111946008807027300000000000000000001851700000000000000000000000000000001010080000000025000103508000000000000000000001010080 000000000000000000000000000000000000000000000000000000001978000
0G20055439GE SEEGER           A22200   G10704    FS 019-16-2766                                                                            0995900            010972    1F  1    102121040761            010964  444 ANITA STREET 73           CHULA VISTA         CA        920111   00000W 04791 03300000000000002              00000000PA00080354509  ANA 15783 0    090               0000410423000000499360183543152887000000000006270000000356250000000000002419200000000000000000000001310000000713464020708076161081033300000000000000000000713464 000000000000018750000000000000000000000000000000000000004467000
0G20055476M  GONZALEZ          21230   G10707    FM 458-56-8592                                                                            1086500            101771    MM  1    021138011859            012864                                                                   1   02000W 05221A03580130A00050102              17500948                              000               0000730209000000612320213568144461367111946007518027300131250000000000001377600000000000000000115000000000000874800131936004176101091200000000000000000000874800 000000000000006250000000000000000000000000000000000000002250000
0G20056084JW GARRETT           21220   G10904    FM 564-56-3886                                                                            1215000            061371    1M  1    033144111664            111664                                                                   1   01000W 05841 04130000A00250205              06400640               ANA 29795 7    060               0000695969000000685020232558186905141471366408645000000393750000000000002307500000000000000000525000990000000978720131838030310114086800000000000000000000978720 000000000000018750000000000000000000000000000000000000003358000
0G20056487RM MARTIN            21210   G11203    FM 235-46-6333                                                                            1692400            020672    LM  1    050331051755            031065                                                                   1   05000W 08141C05230240A00200202              14780948                              000               0000986292000000950530318133198948314861946010955049700000000000000000002609600000000000000000420000000000001358000000000000000135800000000000000000000001358000 000000000000000000000000000000000000000000000000000000002556000
0G20056554PM GERKE             22110   G10704    FS 399-14-3529                                                                            0995900            062572    1F  1    082024042665            042665                                                                   1   00000W 04791 03300000A00190202              14780948                              000               0000509435000000547070186442145023314861946006930000000196980000000000002168300000000000000000399000000000000781632011320000000079295200000000000000000000781632 000000000000009380000000000000000000000000000000000000002597000
0G20057100LT MC KINNEY         21230   G10905    FM 554-44-3021                                                                            1251800            061371    1M  1    092036082763            092765                                                                   1   04000W 06021B04130170A00150102              17500948                              000               0000842251000000697140233770140389367111946008645015300000000000000000001594400000000000000000339000000000000996000121764000810111857400000000000000000000996000 000000000000000000000000000000000000000000000000000000001112000
0G20057318EG MALEC             21240   G10902    FM 043-24-2259                                                                            1141400            052872    LM  1    090630092361            102565                                                                   1   00000W 05491C03850240A00250202              14780948               ANA 29917 9    020               0000569312000000618840209363144303314861946007788050400196980000000000001546300000000000000000515000420000000884080018044000000090212400000000000000000000884080 000000000000009380000000000000000000000000000000000000001588000
0G20057339GL HOFER             21240   G10901    FM 504-32-2998                                                                            1104600            052872    LM  1    051935102861            102565                                                                   1   02000W 05311B03850170A00100205              06400640                              000               0000652670000000599710199748109489134401344007760035300000000000000000000768000000000000000000210000000000000856640000000000000085664000000000000000000000856640 000000000000000000000000000000000000000000000000000000000860000
0G20057464WE SHANAHAN          21000   G11102    FS 302-12-7241                                                                            1375300            020672    LM  2    120525103044            110165                                                                   1   00000W 06611 04400000000000622              16120948                              000               0000625451000000754390244350214493325641946009213000000787500000000000004169200000000000000000000000000000001077602000000000000107760200000000000000000001077602 000000000000037500000000000000000000000000000000000000002734000
0G20057642RA REEVES            21240   G10901    FM 560-68-0315                                                                            1104600            111471    1M  1    082445112265            112265                                                                   1   02000W 05313 00000000000000205              06400640                              000               0000725759000000624530194646126736134401344000000000000000000000000000001031600000000000000000000000000000000892080046226000398093870400000000000000000000892080 000000000000000000000000000000000000000000000000000000000907000
0G20058223JM SPENCER           22110   G10506    FS 555-40-8897                                                                            0853900            030771    1F  1    052631013160            041066                                                                   1   03000W 04111 03030000000000205              06400640                              000               0000583678000000482180166774108719141471366406363000000196980000000000001965400000000000000000000000000000000688720108469003288080047700000000000000000000688720 000000000000009380000000000000000000000000000000000000002066000
0G20058337JK REYNOLDS          22140   G10504    FS 560-56-0368                                                                            0805100            070972    1F  1    120541051666            051666                                                                   1   00005W 03871 03030000A00100002              00000000               ANA 35562 4    020               0000466838000000444630143087165922002680026805971000000187500000000000002132200000000000000000200000420000000635200132334000000076753400000000000000000000635200 000000000000000000000000000000000000000000000000000000003182000
0G20058350CF DOUGHERTY         22200   G10603    FS 167-16-2668                                                                            0869700            070972    1F  1    030915060366            060366                                                                   1   01000W 04181 03030000A00190201              06000379                              000               0000488730000000480210159303111390127730778606335000000078750000000000001433400000000000000000399000000000000686000007448000000069344800000000000000000000686000 000000000000003750000000000000000000000000000000000000001748000
0G20058384JM LAWRENCE          21220   G11103    FM 534-32-1007                                                                            1419700            030572    LM  1    010734102255            061666                                                                   1   01000W 06831B04680170A00300205              06400640                              000               0000964021000000795190265305247223134401344009688035700157500000000000003565400000000000000000630000000000001135920219000020245137516500000000000000000001135920 000000000000007500000000000000000000000000000000000000003672000
0G20058614DS HOUCK             20000   G10605    FM 484-07-3304                                                                            0924100            040471    1F  1    110618071266            071266                                                                   1   01000W 04441E03300550A00075202              14780948                              000               0000512422000000520780174390099728314861946006903115500196980000000000000864000000000000000000157500000000000744080000000000000074408000000000000000000000744080 000000000000009380000000000000000000000000000000000000000864000
0G20058800GC HOLLEY            22140   G10404    FS 328-12-4336                                                                            0719800            111471    1F  1    100320081066            081066                                                                   1   01000W 03461 02750000000000204              02680268               ANA 53436 7    015               0000446271000000405970137935100713056280562805775000000000000000000000001210800000000000000000000000315000000579840059984002768064259200000000000000000000579840 000000000000000000000000000000000000000000000000000000001327000
0G20059305GM WILSON JR         22200   G11207    FM 520-12-6858                                                                            1904000            121370    3M  1    071418011456            093066                                                                   1   08000W 09151 06050000A00500102              17500948               ANA 33429 6    055               0001046469000001073410369616185099367111946012678000000078750000000000003404300000000000000001050001155000001533440022776000000155621600000000000000000001533440 000000000000003750000000000000000000000000000000000000003264000
0G20059366RM MARTIN            20000   G10406    FS 560-76-3976                                                                            0763400            051472    1F  2    080148100566            100566                                                                   1   00000W 03671 02750000000000621              06050379DA0007928 01328ANA 33064 0    047               0000392845000000418840142258112901119130770805775000000196980000000000001362000000000000000000000000420000000598320039816002500064063600000000000000000000598320 000000000000009380000000000000000000000000000000000000001244000
0G20059599BR DUNLOP            22100   G10410    FM 488-20-2042                                                                            0850600            080970    JM  2    032423010756            102566                                                                   1   00000W 04091 03030000000000001              00000000                              000               0000567595000000518770186253123332000000000006660000000000000000000000001238000000000000000000055000350000000741120052546003728079739400000000000000000000741120 000000000000000000000000000000000000000000000000000000000888000
0G20059681DN MOYER             21100   G10906    FM 553-10-0907                                                                            1288600            111471    MM  1    010620040357            103166                                                                   1   01000W 06201 04130000A00190202              14780948                              000               0000733404000000727270246992162185314861946008673000000078750000000000001850000000000000000000411000000000001038960000000000000103896000000000000000000001038960 000000000000003750000000000000000000000000000000000000001850000
0G20059794HL MCCUMBER JR       21200   G11104    FS 153-16-0954                                                                            1464100            031972    3M  230  042511040657            110266                                                                   1   01000W 07041 04680000A00250201              06000379                              000               0000783373000000818780268529226446127730778609800000000157500000000000004850600000000000000000525000000000001169760014016000000118377600000000000000000001169760 000000000000007500000000000000000000000000000000000000004788000
0G20062433AM TURPIN            22000   G11204    FM 308-22-2446                                                                            1745300            111471    JM  1    091825112544            040664                                                                   1   00050W 08391 05500000A00500002              00000000DA0008509 00727ANA 23978 9    175               0000441353000000988160332179375352000000000011523000000787500000000000003847800000000000000001050003675000001411760010512000000142227200000000000000000001411760 000000000000037500000000000000000000000000000000000000003750000
0G20064202WF FILGO             21220   G10904    FM 428-10-4829                                                                            1215000     0000000122671     M       081117041359000000000000112866                                                                   1   06000W 05841 04130000A00100001              00000000               ANA 34541 7    050               0000758586000000685020215421104331000000000008645000000000000000000000001163600000000000000000210001050000000978720070080010000105880000000000000000000000978720 000000000000000000000000000000000000000000000000000000001746000
0G20070196FJ CRAMER            23300   G11104    FS 570-03-1348                                                                            1464100            020672    JM  2    051817072856            122066                                                                   1   00020W 07041E04680550A00400001              00000000RA00415 113142 ANA 54554 6    075               0000580480000000822290270194288017000000000009800115500000000000000000005089000000000000000000835001575000001174800014016000000118881600000000000000000001174800 000000000000000000000000000000000000000000000000000000004980000
0G20071822DF ALMAZAN           22200   G10701    FM 552-82-5049                                                                            0905300     0000000080871     M       100926090167000000000000090167                                                                   1   08000W 04351D03300360A00050622              16120948DA0007921 02284ANA 39069 0    050               0000508491000000487540160575027314325641946006471074400000000000000000000040800000000000000000100000800000000696400016042000000071244200000000000000000000696400 000000000000000000000000000000000000000000000000000000000028000
0G20071869CA MARTIN            22200   G10701    FS 572-72-0603                                                                            0905300            112871    1F  2    042050092767            092767                                                                   1   00000W 04351 03300000A00175002              00000000               ANA 51097 3    100               0000416395000000442840140703165325000000000005995000000000000000000000002656700000000000000000360001785000000632720207946000000084066600000000000000000000632720 000000000000000000000000000000000000000000000000000000004297000
0G20071903FE POCHODOWICZ       23300   G10404    FM 560-68-5729                                                                            0719800            112871    1F  2    113047101167            101167                                                                   1   00000W 03461 02750000000000000              00000000                              000               0000382309000000405970137829090182000000000005775000000956250000000000000751300000000000000000000000000000000579840039393002768062200100000000000000000000579840 000000000000075000000000000000000000000000000000000000000745000
0G20071999GB PAMINTUAN         23100   G10603    FM 571-54-7249                                                                            0869700            082072    1F  1    010541080166            110867                                                                   1   00000W 04181 03030000A00050001              00000000               BSGS114 010215 100               0000314804000000445550151098099765000000000005971000000000000000000000000886300000000000000000105001560004500636495039513000000067600800000000000000000000636495 000000000000000000000000000000000000000000000000000000000932000
0G20072003EJ WIGGINS           22104   G10410    FM 382-38-7025                                                                            0850600      000000121271    1F   50  060337110967000000000000110967                                                                   1   02000W 04091 03030000000000202              14780948                              000               0000612679000000480030159000102400314861946006363000000000000000000000000680000000000000000000005000000000000685789119538002454080778100000000000000000000685789 000000000000000000000000000000000000000000000000000000000572000
0G20072367EM SEBASTIAN         21250   G11105    FM 404-34-6113                                                                            1508500            053071    1F  1    091327072158            021268                                                                   1   00000W 07251 04950000A00190000              00000000                              000               0000885069000000848950286955232815000000000010368000000007500000000000003012800000000000000000380000000000001212785035040000000124782500000000000000000001212785 000000000000000000000000000000000000000000000000000000002800000
0G20073042LD CAMPBELL          22104   G10404    FM 569-64-6319                                                                            0719800     0000000061172     F       120247041069000000000000061570                                                                   1   00000W 03461A02750130000000102              17500948MA00261 071682 ANA 50465 5    087               0000268985000000385320097714086790367111946005775027300037500000000000000715000000000000000000000001494000000550400046879002544059982300000000000000000000550400 000000000000003750000000000000000000000000000000000000000799000
0G20073246CJ GAGEBY            21000   G10405    FS 547-84-7374                                                                            0741600            080672    1F  2    090849052368            050868                                                                   1   00000W 03571 02750000000000621              06050379               ANA 46626 3    047               0000355672000000399450130628112527121980778605775000000000000000000000001383100000000000000000010000987000000570560068188000000063874800000000000000000000570560 000000000000000000000000000000000000000000000000000000001382000
0G20074354CA LUCKIE            21220   G10901    FM 256-52-3046                                                                            1104600     0000000051472    NM       010938032559000000000000071768                                                                   1   02000W 05311A03850130A00100622              16120948                              000               0000788030000000593940185335155490310851859607535027300000000000000000001540700000000000000000205000000000000848480208993004248106172100000000000000000000848480 000000000000000000000000000000000000000000000000000000002449000
0G20074755AG DUGGAN JR         21250   G10901    FM 575-48-8222                                                                            1104600            051472    NM  2    070645111566            111368                                                                   1   03000W 05313 00000000A00100205              06400640               ANA 54803 1    027               0000654686000000570350169143099688134401344000000000000000000000000000000726200000000000000000210000207000000814720029397010794085491100000000000000000000814720 000000000000000000000000000000000000000000000000000000001215000
0G20075080LA MC MASTERS        23300   G10403    FS 549-72-8728                                                                            0698000            043072    1F  2    070546030669            030669                                                                   1   02000W 03361 02750000000000205              06400640               ANA 45924 0    020               0000403004000000381460123698077083134401344005775000000000000000000000000944500000000000000000005000420000000544866044077000000058894300000000000000000000544866 000000000000000000000000000000000000000000000000000000001019000
0G20075407AA CANTONE           22000   G11404    FM 132-03-5499                                                                            2415600            062771    LM  1    090719072239            061769                                                                   1   04000W 11611 07430000A00310102              17500948                              000               0001341149000001362060466433348626367111946015548000000000000000000000006124000000000000000000620000000000001945680000000000000194568000000000000000000001945680 000000000000000000000000000000000000000000000000000000006124000
0G20075861JF STEVENS           21250   G10903    FS 557-60-2836                                                                            1178200            062572    1M  2    050445062069            062069                                                                   1   00000W 05661 03850000A00390104              02400240               ANA 47223 0    100               0000494112000000651600213677177307050400504008058000000000000000000000003091900000000000000000819001492000000930880006592000514093798600000000000000000000930880 000000000000000000000000000000000000000000000000000000003152000
0G20075908BE PARSONS           22200   G10407    FS 224-20-5622                                                                            0785200            100172    1F  1    040310122858            062269                                                                   1   00000W 03781 02750000000000000              00000000                              000               0000446813000000431110124003107737000000000005775000000000000000000000001248400000000000000000000000000000000615920000000000000061592000000000000000000000615920 000000000000000000000000000000000000000000000000000000001288000
0G20076109YM SILVER            22000   G10402    FS 515-42-8911                                                                            0676200            040272    1F  2    080443102467            082169                                                                   1   02000W 03251A02750130A00050205              06400640               ANA 49995 7    039               0000325352000000377330124317067054130681306805775027300000000000000000000692800000000000000000100000819000000539040000000002500054154000000000000000000000539040 000000000000000000000000000000000000000000000000000000000712000
0G20076356SW BRINLEE           21230   G11102    FS 569-48-3425                                                                            1375300     0000000051472     M       082135032966000000000000011670                                                                   1   00000W 06613 00000000A00250204              02680268                              000               0000722232000000763720226794225680056280562800000000000393750000000000004499300000000000000000515000000000001090960028470000000111943000000000000000000001090960 000000000000018750000000000000000000000000000000000000005019000
0G20076400WL SINGLETON         22104   G10404    FS 524-30-8148                                                                            0719800      000000080871     F       030228082766000000000000022470                                                                   1   00010W003461 02750000A003906210000000000000006050379               ANA 35683 2    025               0000358588000000405970123394129585121980778605775000000000000000000000001286600000000000000000780000525000000579840037301002768061990900000000000000000000579840 000000000000000000000000000000000000000000000000000000001457000
0G20076428IB ALEXANDER         22104   G10404    FM 503-24-6100                                                                            0719800     0000000082072     F       052314071868000000000000031570                                                                   1   00000W003461 02750000A000501050000000000000005880588                              000               0000443948000000399810117674094480123481234805775000000393750000000000000813100000000000000000105000000000000571040071360002688064508800000000000000000000571040 000000000000018750000000000000000000000000000000000000000751000
0G20076848JF FRICE             23100   G11108    FM 550-20-8394                                                                            1641700            042069     M       070721062445            040961                                                                   1   02000WB07891E05230550A00310202              14780948                              000               0000937059000000916180317376220324305641923610759113600000000000000000002662802100000000000000650000000000001308880028032000000133691200000000000000000001308880 000000000000000000000000000000000000000000000000000000002542000
0G20076948AJ GODLOVE           22140   G10407    FS 564-44-7446                                                                            0785200     0000000032171     F       121935071764000000000000072170                                                                   1   02000W 03781 02750000000000000              00000000               ANA 58470 2    084               0000378281000000443450108103105830000000000005775000000000000000000000001596700000000000000000000001764000000633440093158000000072659800000000000000000000633440 000000000000000000000000000000000000000000000000000000002234000
0G20077096JA KANE              21210   G10903    FS 549-72-2262                                                                            1178200     0000000051472     M       122847050569000000000000090970                                                                   1   00000W 05661A03850130A00390204              02680268               ANA 52069 3    060               0000581919000000654480160801187401056280562808058027300000000000000000003289900000000000000000817500900000000934960022298025000098225800000000000000000000934960 000000000000000000000000000000000000000000000000000000003152000
0G20077102R  CASTILLO          22104G  G10402    FS 463-74-0647                                                                            0676200     0000000082072     M       010647090968000000000000090970                                                                   1   00000W003251A02750130A000506210000000000000006050379               ANA 60361 1    010               0000404889000000371730083941104242116450744005775027300000000000000000001231200000000000000000110000190000000531040065306002520059886600000000000000000000531040 000000000000000000000000000000000000000000000000000000001493000
0G20077114DA SHERWOOD          22104   G10301    FS 562-80-9094                                                                            0582800     0000000022072     F       071749090870000000000000090870                                                                   1   00000W002801A02750130A000502010000000000000006000379               ANA 63890 9    005               0000320049000000324350044414076377127730778605775027300000000000000000000686100000000000000000110000075000000463360000000002240046560000000000000000000000463360 000000000000000000000000000000000000000000000000000000000688000
0G20077292BL JORGENSEN         22200   G10504    FM 224-30-8738                                                                            0805100     0000000090571     F       090629112161000000000000101170                                                                   1   00000W 03871 03030000000000201              06000379               ANA 59834 5    038               0000410674000000453950105625095616127730778606335000000000000000000000000808200000000000000000000000784000000648560008715000000065727500000000000000000000648560 000000000000000000000000000000000000000000000000000000000782000
0G20077294CA LAWS             A22104   G10403    FM 555-48-0860                                                                            0698000     000000000000      F       012536111467000000000000101170  683 ARTHUR AVENUE             CHULA VISTA         CA        920101   01000W 03361 02750000A00100622              16120948                              000               0000099353000000113030065068025678087140534401650000000000000000000000000191800000000000000000050000400000000161390002862024864018911600000000000000000000161440 000000000000000000000000000000000000000000000000000000000000000
0G20077329RE MCKENNA          A22200   G10902    FM 006-36-0009                                                                            1141400     0000000082072     M       053141032267000000000000101970  3950 MT BLACKBURN AVE         SAN DIEGO           CA        921111   00000W 05491A03850130A00200102              17500948MA00291 053775 ANA 52114 4    058               0000476954000000565490131978136282332111756407288024700000000000000000001482000000000000000000360001102000000807760012752020862084137400000000000000000000807760 000000000000000000000000000000000000000000000000000000000000000
0G20077623SM ADY               21200   G10401    FS 552-82-5936                                                                            0654400     0000000030572     F       021852082770000000000000012471                                                                   1   00000W003153 00000000A001001010000000000000007270379               ANA 54788 1    035               0000309316000000359860070528091272149480770800000000000000000000000000000969000000000000000000200000735000000514080022072000560053671200000000000000000000514080 000000000000000000000000000000000000000000000000000000000902000
0G20078152GA MEAR              23100   G10401    FS 553-80-8795                                                                            0654400     0000000082072     F       101447040171000000000000040171                                                                   1   01000W003153 00000000A000500020000000000000000000000                              000               0000363308000000340110051723068014139610713600000000000000000000000000000557600000000000000000100000000000000485870000000000000048587000000000000000000000485870 000000000000000000000000000000000000000000000000000000000710000
0G20078627AE MOFFITT          A22104   G10304    FS 039-28-7224                                                                            0641000     0000000030870     F       042146031367000000000000061571  3142 REYNARD WAY              SAN DIEGO           CA        921031   00000W003081 02750000A000501010000000000000007270379                              000               0000192460000000188850040855047383079700399603025000000103180000000000000439200000000000000000050000000000000269760002545012628028493300000000000000000000269760 000000000000009380000000000000000000000000000000000000000000000D
0G20078692PV MERCADO           23300   G11106    FM 553-14-6699                                                                            1552900     0000000070972     M       061820022946000000000000070171                                                                   1   03000W 07471 04950000000000204              02680268                              000               0000921521000000831750129683174139056280562809989000000000000000000000001878800000000000000000000000000000001188240000000025000121324000000000000000000001188240 000000000000000000000000000000000000000000000000000000002144000
0G20078879RA PRISBYLLA JR      22200   G10701    FM 569-64-7776                                                                            0905300     0000000011071     M       070545111369000000000000080871                                                                   1   00000W004351 033000000000001020000000000000017500948               ANA 57893 9    045               0000453736000000464710067021103695367111946006443000000000000000000000000938600000000000000000000000420000000663920034522000000069844200000000000000000000663920 000000000000000000000000000000000000000000000000000000001014000
0G20079207JA MEISSNER         A22104   G10301    FS 319-44-7122                                                                            0582800     000000000000      F       080848093071000000000000093071  8391 LAKE ASHWOOD AVE         SAN DIEGO           CA        921192   01000W002802 00000000000000003000000000000000000                                  000               0000213073138290000000000000036342000000000000000000000000000000000000000267200000000000000000000000000000000245280000756019880026591600000026591600000000000000 000000000000000000000000000000000000000000000000000000000000000
0G20079347MY HENSHALL          22100   G10202    FM 453-84-4471                                                                            0533800     000000000000      F       010852122670000000000000011772                                                                   1   00000W002571 027500000000000010000000000000000000000                              000               0000226302080460095380009538039561000000000002475000000060000000000000000252800000000000000000000000000000000278365016085000000029445000000015471500000000136261 000000000000003750000000000000000000000000000000000000000202000
0G20079598JL SMITH             21000   G10201    FM 555-96-0049                                                                            0516600     000000000000      F       011253060572000000000000060572                                                                   1   00000W002481 027500000000006220000000000000016120948                              000               0000136158000000129520012952026627145080853202750000000000000000000000000168500000000000000000000000000000000185008009672000000019468000000000000000000000185008 000000000000000000000000000000000000000000000000000000000332000
0G20080606JA MEISSNER         A22104   G10301    FS 319-44-7122                                                                            0582800     000000000000      F       080848111471000000000000071172  8391 LAKE ASHWOOD             SAN DIEGO           CA        921192   01000W002802 000000000000000030000000000000000000000                              000               0000089872058690000000000000015726000000000000000000000000000000000000000140100000000000000000000000000000000098000014868000000011286800000011286800000000000000 000000000000000000000000000000000000000000000000000000000000000
0G20081238RA ARTMAN            22104   G10301    FM 558-62-6453                                                                            0582800     000000000000      F       080645101772000000000000101772                                                                   2   00000W002802 0000000000000000300000000000000                                      000               0000000000000000000000000000000000000000000000000000000000000000000000000000000000000000000000000000000000000000000000000000000000000000000000000000000000000000 0000000000000000000000
0G30000372HO NELSON           A36000   G11407    FM 095-10-8559                                                                            2635200                      1M  1    070405071238            121240  5227 CASTLE HILLS DR          SAN DIEGO           CA        921091   02000W 12671 07980000000000202              14780948                              000               0000416457000000244640391047174039053870310403137000000000000000000000003696000000000000000000025000000000000349480000000311214066069400000000000000000000349480 000000000000000000000000000000000000000000000000000000000000000
0G30000379MH GALE             A31000   G11405    FM 268-07-0292                                                                            2488800            012372    1M  1    031712051640            051640  8117 MELROSE LANE             EL CAJON            CA        920211   03000W 11971 07430000000000102              17500948DA0005765 04384               000               0000996396000000897530429894342788235861235010347000000525000000000000006368600000000000000000000000000000001282200000000296856157905600000000000000000001282200 000000000000037500000000000000000000000000000000000000000000000
0G30003078SJ JACOBSEN         A32100   G11106    FM 560-64-2608                                                                            1552900            122770    1M  1    063013062942            062942  5164 REMINGTON RD             SAN DIEGO           CA        921151   02000WB07471 04950000A00310202              14780948               ANA 05518 5    005               0000720387000000562530272452223274204011235006903000000175000000000000003900601400000000000000434000070000000803640000000292824109646400000000000000000000803640 0000000000000125000000000000000000000000000000000000000000000000
0G30023896BC STRANGE          A35200   G10710    FM 521-05-1949                                                                            1177100            122770    LM  1    073015092241            092241  1402 BURTON ST                SAN DIEGO           CA        921111   02000W 05661 03850000000000202              14780948                              000               0000542541000000426270205815122320204011235005390000000000000000000000001596900000000000000000000000000000000608880000000140368074924800000000000000000000608880 000000000000000000000000000000000000000000000000000000000000000
0G30024414WA KROTZER JR        32100   G10909    FS 545-14-7037                                                                            1399000            082370    LM  1    122421102441            081141                                                                   1   00000W 06731 04400000000000201              06000379                              000               0000857802000000789530274815295331127730778609240000000262500000000000006533300000000000000000000000000000001127840217842000000134568200000000000000000001127840 000000000000012500000000000000000000000000000000000000004532000
0G30024653J  MC SWEENEY        31300   G11210    FM 530-09-1909                                                             12PS9          2062700            020771    1M  1    112010010241            040846                                                                   1   03000W 09921G06331900000000202              14780948PA00050282651                 000               0001288131000001163640407850358797314861946013265399000000000000000000005973200000000000000000000000000000001662400238331006944190767500000000000000000001662400 000000000000000000000000000000000000000000000000000000006174000
0G30025169CL BEISHLINE        A34300   G10905    FM 521-09-8322                                                                            1251800            122671    LM  1    052816041343            041343  4795 MAPLE AVE                LA MESA             CA        920411   03000W 06021 04130000A00075202              14780948                              000               0000552915000000449920214805123324204011235005754000000262500000000000001736900000000000000000107500000000000642784000000149296079208000000000000000000000642784 0000000000000187500000000000000000000000000000000000000000000000
0G30025307HW NEWMAN            31100   G11207    FM 429-16-0302                                                             11PS8          1904000            071171    LM  1    083120020642            042946                                                                   1   04000W 09151E06050550000000205              06400640                              000               0001129080000001073410368444274721134401344012678115500787500000000000004394600000000000000000000000000000001533440131400006666167150600000000000000000001533440 000000000000037500000000000000000000000000000000000000003510000
0G30026091AW WELDON            35300   G10910    FM 562-20-7840                                                                            1435800            111471    MM  1    032525112243            061046                                                                   1   02000W 06901D04680360000000202              14780948                              000               0000904258000000810320274941200626305571894209800075600000000000000000002257500000000000000000000000000000001157600098808000000125640800000000000000000001157600 000000000000000000000000000000000000000000000000000000002300000
